:100000000C942A000C9434000C9434000C943400AA
:100010000C9434000C9434000C9434000C94340090
:100020000C9434000C9434000C9434000C94340080
:100030000C9434000C9434000C9434000C94340070
:100040000C9434000C9434000C9434000C94340060
:100050000C94340011241FBECFE5D8E0DEBFCDBF25
:100060000E9430010C9443010C9400008230D9F0BE
:1000700068F4811519F181E001C0880F6A95EAF7EB
:1000800097B3411133C0892B87BB0895833069F53D
:1000900081E001C0880F6A95EAF791B3411121C050
:1000A000892B81BB089581E001C0880F6A95EAF72A
:1000B00094B3411112C0892B84BB089581E001C023
:1000C000880F6A95EAF79AB3411103C0892B8ABB5E
:1000D0000895809589238ABB08958095892384BBE0
:1000E00008958095892381BB08950895809589237B
:1000F00087BB08958230E9F070F4811531F181E019
:1001000001C0880F6A95EAF798B3413059F180959C
:10011000892388BB0895833021F581E001C0880FD1
:100120006A95EAF792B3413001F18095892382BB49
:10013000089581E001C0880F6A95EAF795B34130D0
:10014000D1F08095892385BB089581E001C0880F97
:100150006A95EAF79BB3413059F0809589238BBBB0
:1001600008950895892B88BB0895892B82BB089533
:10017000892B8BBB0895892B85BB08958230B9F0FC
:1001800058F48115E9F086B390E002C09595879503
:100190006A95E2F7817008958330D9F480B390E0D6
:1001A00002C0959587956A95E2F78170089583B3AB
:1001B00090E002C0959587956A95E2F78170089561
:1001C00089B390E002C0959587956A95E2F78170B2
:1001D000089580E00895823079F038F4811589F02F
:1001E00061111BC08FEF87BB08958330A9F46111A3
:1001F00011C08FEF81BB089561110AC08FEF84BBDE
:100200000895611103C08FEF8ABB08951ABA08954B
:1002100014BA089511BA0895089517BA089582304E
:1002200049F020F4811541F068BB0895833031F422
:1002300062BB089565BB08956BBB08950895823035
:1002400049F020F4811541F086B30895833031F4EC
:1002500080B3089583B3089589B3089580E0089525
:1002600040E060E080E00E94360091E08BB3892797
:100270008BBB2FEF34E38CE0215030408040E1F71E
:0A02800000C00000F3CFF894FFCF98
:00000001FF
