:100000000C942A000C943C000C943C000C943C0092
:100010000C943C000C943C000C943C000C943C0070
:100020000C943C000C943C000C94B1010C94DA014B
:100030000C943C000C943C000C943C000C943C0050
:100040000C943C000C943C000C943C000C943C0040
:100050000C943C0011241FBECFE5D8E0DEBFCDBF1D
:1000600020E0A0E6B0E001C01D92A436B207E1F79F
:100070000E9403020C942B020C9400008230E9F0E1
:1000800070F4811531F181E001C0880F6A95EAF7BB
:1000900097B3413059F18095892387BB0895833008
:1000A00021F581E001C0880F6A95EAF791B34130EC
:1000B00001F18095892381BB089581E001C0880FFB
:1000C0006A95EAF794B34130D1F08095892384BBD7
:1000D000089581E001C0880F6A95EAF79AB341302C
:1000E00059F0809589238ABB08950895892B87BB91
:1000F0000895892B81BB0895892B8ABB0895892B8C
:1001000084BB08958230E9F070F4811531F181E00B
:1001100001C0880F6A95EAF798B3413059F180958C
:10012000892388BB0895833021F581E001C0880FC1
:100130006A95EAF792B3413001F18095892382BB39
:10014000089581E001C0880F6A95EAF795B34130C0
:10015000D1F08095892385BB089581E001C0880F87
:100160006A95EAF79BB3413059F0809589238BBBA0
:1001700008950895892B88BB0895892B82BB089523
:10018000892B8BBB0895892B85BB08958230B9F0EC
:1001900058F48115E9F086B390E002C095958795F3
:1001A0006A95E2F7817008958330D9F480B390E0C6
:1001B00002C0959587956A95E2F78170089583B39B
:1001C00090E002C0959587956A95E2F78170089551
:1001D00089B390E002C0959587956A95E2F78170A2
:1001E000089580E008958230B9F058F48115E9F05F
:1001F00088B321E001C0220F6A95EAF7822788BB05
:1002000008958330D9F482B321E001C0220F6A95AA
:10021000EAF7822782BB089585B321E001C0220F4F
:100220006A95EAF7822785BB08958BB321E001C068
:10023000220F6A95EAF782278BBB089508958230D2
:1002400099F048F48115B9F081E0613009F080E05F
:10025000819587BB08958330A9F481E0613009F06E
:1002600080E0819581BB089581E0613009F080E0F4
:10027000819584BB089581E0613009F080E081952B
:100280008ABB08950895823049F020F4811541F029
:1002900068BB0895833031F462BB089565BB08954F
:1002A0006BBB08950895823049F020F4811541F028
:1002B00086B30895833031F480B3089583B30895ED
:1002C00089B3089580E00895613058F483B78F7B37
:1002D00083BF83B7877F83BF72BF89B7816089BFC0
:1002E000089519F0623061F0089593B79F7B93BF32
:1002F00093B7986093BF8CBF89B7826089BF089518
:1003000093B7906293BF93B79F7E93BF93B7906468
:1003100093BF93B7986093BF8CBF0895811521F068
:1003200093B7987F892B83BF089583B7887F83BF56
:10033000089582BF08958CBF0895813040F46115FF
:10034000710531F06093620070936300089509F0C5
:10035000089561157105E1F3609360007093610089
:1003600008951F920F920FB60F9211242F933F936F
:100370004F935F936F937F938F939F93AF93BF93AD
:10038000EF93FF93E0916000F0916100309709F0E6
:100390000995FF91EF91BF91AF919F918F917F91BF
:1003A0006F915F914F913F912F910F900FBE0F90E2
:1003B0001F9018951F920F920FB60F9211242F9332
:1003C0003F934F935F936F937F938F939F93AF93DD
:1003D000BF93EF93FF93E0916200F0916300309739
:1003E00009F00995FF91EF91BF91AF919F918F9186
:1003F0007F916F915F914F913F912F910F900FBE21
:100400000F901F90189541E063E081E00E943E004C
:1004100062E070E080E00E94640183E00E948E014F
:10042000C0E08C2F0E949B018FE295E70197F1F7C6
:1004300000C00000CB5FC430A1F7CFEF8C2F0E942B
:100440009B018FE295E70197F1F700C00000C550CE
:0A045000CB3FA1F7E5CFF894FFCFF2
:00000001FF
