:100000000C942A000C9434000C9434000C943400AA
:100010000C9434000C9434000C9434000C94340090
:100020000C9434000C9434000C9434000C94340080
:100030000C9434000C9434000C9434000C94340070
:100040000C9434000C9434000C9434000C94340060
:100050000C94340011241FBECFE5D8E0DEBFCDBF25
:100060000E945C010C947E010C9400008230E9F047
:1000700070F4811531F181E001C0880F6A95EAF7CB
:1000800097B3413059F18095892387BB0895833018
:1000900021F581E001C0880F6A95EAF791B34130FC
:1000A00001F18095892381BB089581E001C0880F0B
:1000B0006A95EAF794B34130D1F08095892384BBE7
:1000C000089581E001C0880F6A95EAF79AB341303C
:1000D00059F0809589238ABB08950895892B87BBA1
:1000E0000895892B81BB0895892B8ABB0895892B9C
:1000F00084BB08958230E9F070F4811531F181E01C
:1001000001C0880F6A95EAF798B3413059F180959C
:10011000892388BB0895833021F581E001C0880FD1
:100120006A95EAF792B3413001F18095892382BB49
:10013000089581E001C0880F6A95EAF795B34130D0
:10014000D1F08095892385BB089581E001C0880F97
:100150006A95EAF79BB3413059F0809589238BBBB0
:1001600008950895892B88BB0895892B82BB089533
:10017000892B8BBB0895892B85BB08958230B9F0FC
:1001800058F48115E9F086B390E002C09595879503
:100190006A95E2F7817008958330D9F480B390E0D6
:1001A00002C0959587956A95E2F78170089583B3AB
:1001B00090E002C0959587956A95E2F78170089561
:1001C00089B390E002C0959587956A95E2F78170B2
:1001D000089580E008958230B9F058F48115E9F06F
:1001E00088B321E001C0220F6A95EAF7822788BB15
:1001F00008958330D9F482B321E001C0220F6A95BB
:10020000EAF7822782BB089585B321E001C0220F5F
:100210006A95EAF7822785BB08958BB321E001C078
:10022000220F6A95EAF782278BBB089508958230E2
:1002300099F048F48115B9F081E0613009F080E06F
:10024000819587BB08958330A9F481E0613009F07E
:1002500080E0819581BB089581E0613009F080E004
:10026000819584BB089581E0613009F080E081953B
:100270008ABB08950895823049F020F4811541F039
:1002800068BB0895833031F462BB089565BB08955F
:100290006BBB08950895823049F020F4811541F038
:1002A00086B30895833031F480B3089583B30895FD
:1002B00089B3089580E0089541E060E080E00E9405
:1002C000360041E060E080E00E947A002FEF89E68E
:1002D00098E1215080409040E1F700C0000040E0EC
:1002E00060E080E00E947A002FEF89E698E12150DB
:1002F00080409040E1F700C00000E3CFF894FFCFCA
:00000001FF
